:020000040800F2
:1000000000040020C1010008611000086110000810
:1000100061100008611000086110000861100008FC
:10002000611000086110000861100008A1040008B8
:1000300061100008611000086110000861100008DC
:1000400061100008611000086110000861100008CC
:1000500061100008611000086110000861100008BC
:1000600061100008611000086110000831200008CC
:1000700001200008D11F0008A11F0008711F0008FF
:10008000411F0008111F00086110000861100008DE
:10009000611000086110000861100008611000087C
:1000A000611000086110000861100008611000086C
:1000B000C11C00086110000861100008C11300088D
:1000C000E1120008611000086110000861100008CA
:1000D000611000086110000821110008611000087B
:1000E000611000086110000861100008611000082C
:1000F000611000086110000861100008E11E00088E
:1001000061100008612000086110000861100008FB
:1001100061100008611000086110000861100008FB
:10012000B11E0008811E0008511E0008211E000893
:10013000F11D00086110000861100008611000083E
:1001400061100008611000086110000861100008CB
:10015000C11D0008911D0008611D00086110000804
:1001600061100008611000086110000861100008AB
:10017000611000086110000861100008611000089B
:10018000611000086110000861100008611000088B
:10019000611000086110000861100008611000087B
:1001A000611000086110000861100008611000086B
:1001B000611000086110000861100008611000085B
:1001C00072B6214880F30988022080F31488BFF3B7
:1001D0006F8F00F05DFF01F0DBFC1C481C491D4ADD
:1001E00091423CBF41F8040BFAE71B49164A914281
:1001F0003CBF41F8040BFAE71849194A194B9A42D7
:100200003EBF51F8040B42F8040BF8E700201649F2
:10021000164A91423CBF41F8040BFAE700F030FF68
:10022000134C144DAC4203DA54F8041B8847F9E729
:1002300002F066FA104C114DAC4203DA54F8041B7C
:100240008847F9E700F014BF0008002055555555C0
:10025000000000200004002000040020A049000845
:10026000000800200008002000080020DC14002006
:10027000C0010008C0010008C0010008C00100085A
:100280002DE9F04FC1F80CD0D0F80CD0BDE8F08FBC
:10029000002383F311882846A047002000F0B8FE11
:1002A00000F0E6F900DFFEE70000000000000000BB
:1002B000844641EA000313F003036DD1403A41D371
:1002C00051F8043B40F8043B51F8043B40F8043B30
:1002D00051F8043B40F8043B51F8043B40F8043B20
:1002E00051F8043B40F8043B51F8043B40F8043B10
:1002F00051F8043B40F8043B51F8043B40F8043B00
:1003000051F8043B40F8043B51F8043B40F8043BEF
:1003100051F8043B40F8043B51F8043B40F8043BDF
:1003200051F8043B40F8043B51F8043B40F8043BCF
:1003300051F8043B40F8043B51F8043B40F8043BBF
:10034000403ABDD2303211D351F8043B40F8043B5F
:1003500051F8043B40F8043B51F8043B40F8043B9F
:1003600051F8043B40F8043B103AEDD20C3205D36F
:1003700051F8043B40F8043B043AF9D2043208D067
:10038000D2071CBF11F8013B00F8013B01D30B88D9
:1003900003806046704700BF082A13D38B078DD0B7
:1003A00010F003038AD0C3F10403D21ADB071CBF89
:1003B00011F8013B00F8013B80D331F8023B20F8F3
:1003C000023B7BE7043AD9D3013A11F8013B00F82C
:1003D000013BF9D20B7803704B7843708B788370B4
:1003E00060467047000000000000000000000000B0
:1003F00001F01F0330B449095C1C55090123A340D7
:100400008D4203F1FF3402F01F0206D350F825306D
:1004100004EA0300D04030BC704750F8211050F877
:10042000253004EA0100C2F12001D340884018437E
:1004300030BC704700000000000000000000000019
:1004400070B57F217E220546FFF7D2FF48B1012813
:100450001FD1284645213022FFF7CAFF0130800214
:1004600070BD284649213E22FFF7C2FF31210446D4
:100470002F222846FFF7BCFF53210646502228466C
:10048000FFF7B6FF02360134B440093804FA00F031
:1004900070BD002070BD00BF000000000000000023
:1004A000EFF30983203383F30988002383F3118852
:1004B000704700BF000000000000000000000000C6
:1004C00010B4202383F31188094C0A4B2268196861
:1004D000C31D23F00703891A8B429DBF9B1823601D
:1004E00010460020002383F311885DF8044B704709
:1004F00074100020300C00200000000000000000FC
:1005000010B4202383F31188037F072B0ED8DFE874
:1005100003F0270D0D2308040D08026A93680133C8
:10052000936090E80C001A60026853604FF0FF344B
:10053000002281680D4B046202771B689A688A4228
:10054000FBD25A684260036000211060586081F35A
:1005500011885DF8044B7047036A00221A60E5E7D2
:10056000002383F311885DF8044B7047401100208D
:10057000FEE700BF000000000000000000000000D7
:100580000D4A106870B40368946913600126002551
:10059000A1685A6006779061257700E01B689A6829
:1005A0008A42FBD85A6862602360214614605C600E
:1005B00070BCFFF765BE00BF4011002000000000C6
:1005C000202383F311880F4B5B6813F4006302D17F
:1005D00083F311887047EFF309834FF0807243F87B
:1005E000042CA3F1200282F30988074A116892695A
:1005F0008968926891428CBF044A054A43F8082CE6
:10060000704700BF00ED00E040110020A10200088B
:10061000A40200080000000000000000000000002C
:100620000E4B0F495A688368F0B44F6FC668416833
:10063000D0E90445D31ADB1BE41845F10005013667
:100640008B42C6608360C0E9044505D802689342C6
:1006500038BF0360F0BC70474360FBE7001000E068
:100660004011002000000000000000000000000019
:10067000FFF786BF0000000000000000000000003F
:10068000074B30B41A6899691468087701256360CC
:1006900015771C60104630BC9A61FFF7F1BD00BFB2
:1006A00040110020000000000000000000000000D9
:1006B000F0B54B1C87B047D03E4C3F4AA369059329
:1006C0002546012955F81C3F4FF0804C98BF022168
:1006D000AB42DCF824600492864655D0A26A986842
:1006E00031448A1A824238BFCCF83410824204D98D
:1006F0001B68121A98689042FAD35968029101AFA8
:1007000001930F605F60039299684FF0FF308A1A7F
:100710009A6060627046FFF7B3FF049B83B1E369A0
:10072000244ABB4217D0029A019B1360019B00210F
:10073000AB425A60049103D09968039A0A449A60C4
:10074000A369186A07B0F0BD1A4CFFF799FFA369B7
:10075000186A07B0F0BD0199D1610023A9424D602C
:10076000049322D003988B68926A03444FF0804030
:100770008B60416A8A1A9342E2D99B1A012B98BF77
:1007800002230B444363DBE701AF881900220223F5
:10079000A662019502950391E7612762CCF83400C7
:1007A000CCF81020CCF80C30B4E74FF08042D36086
:1007B000C6E700BF4011002001050008000000004E
:1007C00069B1084B10B4024644689B69042083E871
:1007D0001400236053605DF8044BFFF769BF4FF0CE
:1007E000FF307047401100200000000000000000B2
:1007F0002DE9F04F83B004468B4615460193C76937
:100800004FF0200888F311880026B146A3680BF149
:10081000010A2046FBB16269A368511C013B61617A
:10082000A3609BF800301370236962699A4224BF69
:10083000E368636107B1B84789F31188013D06F1A8
:10084000010612D088F31188A368D3460BF1010A80
:100850002046002BDFD1204601990093FFF7B0FF1F
:10086000009B0028D2D083F31188304603B0BDE846
:10087000F08F00BF0000000000000000000000003A
:10088000F8B504460F461646202383F3118803E08B
:10089000FFF796FF002819DBA56820463146002D9A
:1008A000F6D06269A368511C013B6161A3601770B7
:1008B000236962699A4224BFE3686361E3690BB10B
:1008C00020469847002080F31188F8BD85F31188F1
:1008D000F8BD00BF000000000000000000000000A4
:1008E0002DE9F04F044683B0894693461D46D0F863
:1008F0001C80202787F3118800260197B246B8F1A3
:10090000000F05D02046C04702E0FFF759FFE0B9CD
:10091000A76820462946002FF7D0A269A368511C7A
:10092000013BA161A360137809F8013B2369A26927
:100930009A4224BFE368A3618AF311880136B34564
:1009400005D0019B83F31188D9E787F311883046DE
:1009500003B0BDE8F08F00BF000000000000000001
:1009600070B520230E46044683F31188C3692BB16A
:10097000984703E0FFF724FF002815DBA568204611
:100980003146002DF6D0A169A36825694A1C013BB8
:10099000AA42A360A26128BFE368087828BFA361C8
:1009A000002383F3118870BD85F3118870BD00BFEB
:1009B00008B50146202383F311880820FFF778FE4D
:1009C000002383F3118808BD000000000000000030
:1009D0002DE9F04385B0836C0322027178225A60BE
:1009E0001A6842F003021A605A68054642F480729F
:1009F0005A6002AF6420FFF7DBFFAA6C00214FF4BE
:100A000080639160D360536B1806FCD58023936399
:100A100028463B1D08214FF4D57201F0B9FB98B967
:100A20007B680122C3F3032393422A6300F0FF8013
:100A3000AC6C002302226360012623602A713046D9
:100A40000C37BD46BDE8F0832846372100223B1D08
:100A500001F09EFB002837D17A68BB4B1340002B76
:100A600032D1AA6C2B634FF480619360D160536BD9
:100A70001906FCD58023DFF8DC829363642640F2FC
:100A800069492846372100223B1D01F081FBAC6CEF
:100A90000028CED17A68AC4B1340002BC9D1C4F8E2
:100AA0000880C4F80C90616B11F04503FBD0480737
:100AB000A36325D463697B60002B27DB013EB8D09C
:100AC0006420FFF775FFDCE702232B63DFF89092C9
:100AD000642640F24148AC6CC4F80890C4F80C801D
:100AE000616B11F04503FBD0A3634B0708D4636926
:100AF000002B0BDB013E9CD06420FFF759FFEAE797
:100B000005F1340001F004FBAC6C92E75A0003D508
:100B10002B6B43F010032B6328460221002205F1C2
:100B2000080301F015FB002882D102460321284664
:100B300005F1380301F02CFB00287FF479AF05F1B3
:100B40001806334628460921AA6B01F001FB00284C
:100B50007FF46EAF3B4628460721AA6B01F018FBD5
:100B6000814600287FF464AF2B6B03F00F03022B48
:100B700000F0F880E846304690B07F217E2202AC3B
:100B8000FFF736FC002840F0C4802B6BC54603F00D
:100B90000F03AC6C6268022B22F0FF0262603046E9
:100BA00000F09080FFF74CFCA8623B4628461021DD
:100BB0004FF4007201F0ECFA064600287FF438AFDB
:100BC0003A68614B1340002B7FF432AF2B6B03F07C
:100BD0000F03012B50D9022B7FF42AAFEB6A1A794D
:100BE000012A40D020D3022AA96C00F0D6804B689D
:100BF000012A23F4C05300F0CE80C0F0C980022A3D
:100C000040F0C480514A43F480534B603B1D28465A
:100C1000062101F0BDFA00287FF40AAF7A684A4B3A
:100C20001340002B7FF404AF05232B7107E7024626
:100C3000372128463B1D01F0ABFA00287FF4F8AEBF
:100C40007A68414B1340002B7FF4F2AE2B6B03F01C
:100C50000F03022B3FF43AAF3D493E4A012B0CBF34
:100C6000884690460AE7A96C3B4A4B6823F4C05378
:100C700043F400634B60C9E7EB6A1B79002BD3D0C8
:100C8000012B7FF4D5AEA96CAA6B4B6823F4C0533B
:100C900043F400634B60284637213B1D01F078FA8E
:100CA00000287FF4C5AE7A68274B1340002B7FF4F1
:100CB000BFAE3B1D28460621022201F069FA00283A
:100CC000ACD0B5E67F217E22FFF792FB012858D9F0
:100CD000EB6A1E68002E3FF4ACAE0023009328465A
:100CE00031464FF40072082301F03AFC00287FF4EB
:100CF0009FAE96F8D61096F8D73096F8D42096F88E
:100D0000D500090401EB0363134403EB0023AB623A
:100D10004BE7CDF80090284621464022062301F0FB
:100D20001FFC70B9637B9B077FF52FAF0B4B0093C4
:100D3000214628464022062301F012FC00283FF4F9
:100D400024AFC54674E600BF08E0FFFD0000B7030E
:100D5000000010C0000010800001B703F1FFFF8009
:100D60000080FFC0EA6A1268002A3FF412AF3B1D00
:100D7000284606210B4A01F00BFA2B6B03F00F03F8
:100D800007E73046FFF75CFBA8620EE7064A3DE73F
:100D90004B60054A3AE7044A6AE74B68034A23F482
:100DA000C05330E70001B9030000B7030002B703E6
:100DB00010B5044682B001AB20460D21A26B01F0B4
:100DC000E7F90A4B78B9019A1340C2F343214BB9B2
:100DD000042908D04FF00A0004D3072902D8FFF7EE
:100DE000E7FDE8E7012002B010BD00BF08E0FFFD0D
:100DF00000228168084B10B4044602771B689A6889
:100E00008A42FBD25A6862602360204614605C60AC
:100E10005DF8044B704700BF401100200000000047
:100E2000F8B5184D2023AE6983F311880468C368B0
:100E3000B363A04223D0F16B4BB11A68934203D045
:100E40009268914238BF1146DB68002BF5D103460A
:100E50002268A76BB16020461A6053609C60DF6017
:100E6000A363FFF7C5FF2A68AB6992689B689A4243
:100E700001D9FFF785FB002383F31188F8BD002318
:100E80008360F8E74011002000000000000000002F
:100E9000304B826870B59C69002A55D0A168936870
:100EA0009942054606D9137F9160062B33D0072B54
:100EB0001DD09BB12B4603E09968A268914202D3F2
:100EC0001B689D42F8D15A686260236014605C60C0
:100ED00025620620BDE87040FFF7D2BB92E80A0009
:100EE0001960116810464B60FFF782FFE2E792E855
:100EF00009001860166A10684360334602E098687B
:100F0000884202D31B689E42F9D159685160136030
:100F10000A605A60CEE792E809001860166A106805
:100F20004360334602E09868884202D31B689E42C1
:100F3000F9D15968516013600A605A60B268A168BB
:100F400093688B42AFD3B5E7A36BC3608460A063A3
:100F500070BD00BF40110020000000000000000034
:100F6000F8B550F8087C064607F10805A0F108041A
:100F70002023103783F311883846FFF789FF0023B9
:100F800083F311882B46AB4204D0A34202D31B68E3
:100F9000AB42FAD11A681AB1944201D31346F2E770
:100FA00056F8041C46F8082C1C6001F1080256F89B
:100FB000085CA018A8420AD0596801F108021A4436
:100FC00094420DD03846BDE8F840FFF729BF40688D
:100FD000A25846F8082C0A18083246F8042CEBE709
:100FE00016E905000A44083218605A60EAE700BFB3
:100FF00003682BB10022026018461962FFF7F8BEA1
:10100000704700BF0000000000000000000000006A
:1010100038B52022034682F311880E4A9469606A2B
:10102000236204F12405A84206D003686362FFF737
:10103000DFFE606AA842F8D1637F9B0704D1636931
:1010400022691A61226953610F20BDE83840FFF719
:1010500017BB00BF4011002000000000000000008E
:10106000FEE700BF000000000000000000000000DC
:10107000FEE700BF000000000000000000000000CC
:10108000704700BF000000000000000000000000EA
:10109000704700BF000000000000000000000000DA
:1010A0000020704700000000000000000000000069
:1010B0000120704700000000000000000000000058
:1010C000024AD36843F08003D36070470044004075
:1010D00011F00C0F10B4446B14D1026B1368196833
:1010E00021F01F0119601968C907FCD4117A5268F0
:1010F0003D238B401360636843F4007363605DF8C5
:10110000044B704772B6024B024ADA62FEE700BF38
:1011100040110020404400080000000000000000D2
:101120002DE9F0476A4D6E6FD6F80CA03368DA05EA
:1011300082B09CB200F18280202383F3118814F0E6
:101140002F0F49D0624F4FF0000907F10C0807E05C
:10115000A10673681CD43468A4B214F02F0F3BD0DE
:101160002307F5D014F0080F0CBF00208020E10702
:1011700048BF40F02000A20748BF40F0400063078E
:1011800048BF40F4807002F053F8A1067368E2D5BE
:101190006A69002A42D0296A6A6A914247D06A691C
:1011A000481C01326A6128620B702A6AEB699A4214
:1011B00001D3BB693B62EB684345CCD01A68FA6047
:1011C0001846C2F80480C3F82090FFF711FE346877
:1011D000A4B214F02F0FC3D1002383F311881AF0A7
:1011E000800F01D0220637D4630612D5202383F363
:1011F00011886A6CAB6C36499A4254D04FF6BF7373
:101200000AEA03036FF04002F3600023326083F3C5
:10121000118802B0BDE8F047FFF7D2B9042001936E
:1012200002F006F8296A6A6A019B9142B7D17A698D
:10123000002AB4D0802001F0FBFF8CE7202383F349
:1012400011884FF4007001F0F3FF6FF48073336086
:10125000002383F311886FE7202383F31188AB6C9D
:101260006A6C1B499A4225D0AA6B1949581C013255
:10127000AA63A8641F782B6C984201D3CB6B8B6454
:1012800013492B6B01F13002934207D018680863B1
:101290000021426018461962FFF7AAFD776000231B
:1012A00083F31188A0E78B6B002BA7D0102001F0EF
:1012B000BFFFA3E78A6B002AD6D0082001F0B8FF51
:1012C0004FF63F730AEA030343F04003F360E6E797
:1012D000C41000200000000000000000000000001A
:1012E0003448F8B5446B076B66693A68B1B201F4EB
:1012F0005F43DB436361136823F01F0313601368CC
:10130000DB07FCD497F808E0C56A7F682A683D23AC
:1013100003FA0EF33B60136823F01F031360136896
:1013200013F00103FBD12F7A6D683D22BA40CF053F
:101330002A6048BF01238D05836044BF43F0020348
:1013400083604A050AD5626822F4007262602268EE
:1013500043F0040342F40072226083600F0544BF2F
:1013600043F0080383604D0444BF43F020038360CF
:10137000CC0413D543F010033104836016D420232A
:1013800083F311880C486FF00101FFF731FE002351
:1013900083F31188BDE8F840FFF712B9320405D491
:1013A000002BECD1BDE8F840FFF70AB943F0400349
:1013B0008360E4E73C10002058100020000000008B
:1013C0003A483B4A70B5446BA369656945EA0343F3
:1013D00023F07F4393424CD01ED8073A93423CD02F
:1013E0000132934210D16268C36A22F400721B6812
:1013F00062601A6842F001021A60626842F4805228
:1014000062605B68012B4BD915F00A0F18BFA36906
:10141000BDE87040FFF7D4B8264A934212D002329A
:101420009342F1D1C36A1B685E683EB32368028CA5
:1014300043F4A06342F0010202842360BDE87040DF
:10144000FFF7BEB86368026B23F400731268636031
:10145000136843F001031360D6E7038C1A0A0BD01C
:1014600003F0010343F0F00302F00602134323618B
:10147000CAE7038CC3F347032361C5E7636823F41A
:1014800000736360236843F400732360202383F3B5
:1014900011881C303146FFF7ABFD86F31188B3E7A6
:1014A000236823F480632360AEE700BF3C10002074
:1014B0000800030082000700000000000000000098
:1014C00011F00C0F436B25D170B5C56A29680A6805
:1014D00022F01F020A600A6812F00104FBD12E7A82
:1014E00069683D22B2400A605A6822F480525A600C
:1014F0001A6822F480621A601A6842F400721A6054
:10150000202383F311881C302146FFF771FD84F3FB
:10151000118870BD72B6024B024ADA62FEE700BF64
:1015200040110020404400080000000000000000BE
:101530000168B9B110B40C781F2C09D93A2C0ED01F
:101540000A4601E03A2B07D012F8013F1F2BF9D8C9
:1015500000205DF8044B70474B1C9A4205D04FF0B9
:10156000FF30F6E74FF0FF307047302CF7D10231F3
:1015700001600020EDE700BF000000000000000057
:101580002DE9F84FC4880134A3B213B90420BDE893
:10159000F88F0369002BF9D014F00F080E460546AA
:1015A00008D00768EC8007EB481730376F610020E0
:1015B000BDE8F88FC16807680133036161B1BB788A
:1015C000013B13EA1419EDD1012902D97B69994233
:1015D00006D30220BDE8F88F3B899C42D6D2E1E7D2
:1015E000384602F025FC01288246F2D9B0F1FF3FCF
:1015F00000F088802F687B6983421A460DD9861EC9
:10160000023A9642C5F80CA004D297F80290BB6A41
:1016100009FB0639C5F81090C4E7002EB6D0EE6875
:10162000002E72D1D7F80CB0BBF1000F00F0818012
:101630005B4598BF4FF0010BDA4614E0BBF1010F98
:1016400040F29480022B16D94FF0020A514602F064
:10165000EFFB002870D0411C0ED001280BD0DA45DA
:1016600000F084807B690AF1010A9A453846E5D288
:10167000BAF1010FEAD8012001288246A9D0BAF1B7
:10168000FF3F3FD028680379002B79D100F1300368
:10169000002200F50C7003F8012B8342FBD128686F
:1016A0004369AAF10206023B9E423BBF836A8278ED
:1016B000002302FB0633C3624FF0000B012704E056
:1016C000C36A0133C3620BF1010B83789B4550D28F
:1016D000077128680379002BF2D002F011FC88B959
:1016E0002868EDE7012E7FF674AF7B699E42BFF458
:1016F00070AF31463846524602F022FB50B3012803
:101700007FF467AF0120BDE8F88F012E7FF661AF4F
:10171000B3427FF65EAF3846314602F089FB0128BE
:101720007FF657AF431CEDD07B699842A4D3B346F4
:1017300082E74FF0010B7FE77B6953457FF649AFA6
:10174000384651466FF0704202F0FAFA0028D6D1BE
:10175000002EC7D13B69C7F80CA05A1C8FD07A79EC
:10176000013B42F001023B617A7188E70720BDE846
:10177000F88FC36A4269CBEB03030746C3623FE7B6
:1017800002F0BEFB0028BDD128687FE70000000002
:1017900070B50D468168C5800129044603D00068F4
:1017A0004369994201D3022070BDC1B90278032A6E
:1017B00011D003899D42F6D2436AE160002BF2D03A
:1017C00005F00F0200EB421003EB1515303060619D
:1017D0002561002070BD426A002AEAD01146867851
:1017E0003601B5420FD215E002F022FB431C014640
:1017F000A5EB060517D00128D5D9206843698B428F
:10180000D1D9AE4206D80129CDD943698B42EBD854
:10181000022070BD023B8A1E9A4206D28678836AF5
:1018200006FB0233C9E7012070BDE160BBE700BFE2
:101830002DE9F04F0B782F2B83B00C46054600F0B6
:101840003A815C2B00F037810026AE6023781F2B95
:1018500040F24B81DFF8B8B201E014F8013F2F2BC2
:10186000FBD05C2BF9D099B21F29E86940F2EC80DB
:101870002F292DD05C292BD0A0F1020CA6460127E0
:1018800017E0803B3BF81310F1B17F2913D92CF8F6
:10189000021F1EF8013F99B21F2907F1010240F211
:1018A000D5802F2916D05C2914D0B2F5807F0BD0BB
:1018B00017467F29E5D8222906D0914A12F8013F20
:1018C000002BE4D09942F9D1062003B0BDE8F08F97
:1018D0000027012214440026002FF5D000EB470218
:1018E00032F8023D202B01D02E2B02D1013FF7D13F
:1018F000EAE73B46AA69002120F8131002F10B0722
:1019000000EB430E202102F8011BBA42FBD1871ED7
:10191000002100E0013137F8022F202AFAD02E2AC8
:10192000F8D009B146F00306774637F802EDBEF16C
:101930002E0F01D0013BF8D14FF0000CE2464FF0E2
:10194000080E019401317AB3202A1FD02E2A1BD011
:10195000F44520D28B427CD07F2A00F287802B2A4C
:1019600000F09D80674F02E0A24200F0988017F8D7
:10197000014F002CF8D1A2F14104192C00F2AB80E8
:101980004AF0020AD2B28DE08B4262D046F00306E2
:1019900030F81120D6E7BEF10B0F00F08E808B429D
:1019A0005AD046F0030657D2AB69019C1A78E52A53
:1019B00000F08D80BEF1080F04BF4FEA8A025FFA83
:1019C00082FA0AF00C020C2A72D00AF003010329F1
:1019D0006ED0B00709D40AF00301012908BF46F010
:1019E0001006042A08BF46F00806DE7228460021C9
:1019F000FFF7CEFEB8B9284602F0DAF8AB69DB7A19
:101A000098B959073FF561AF6B69DA7AD20672D59A
:101A10002A68D87E11789A7E032942EA00220CD0E7
:101A2000AA6023781BE7AB69DB7A04287FF44DAF0B
:101A300013F0040F08BF052047E7597D1B7D43EADB
:101A4000012342EA0342EBE7002701221444042663
:101A500042E7BEF10B0F30D04FEA8A0A5FFA8AFAEA
:101A600019464FF00B0E4FF0080C91E7264F00245B
:101A700001E0802C41D037F8028F90451FFA84F99D
:101A800004F10104F5D1214C09F1800214FA82F22B
:101A900046F0020612F8802C002A7FF460AF46F070
:101AA00003065F22AC6904F80C200CF1010C6FE70F
:101AB00046F002068DE70134C6E6AB69019C1A7850
:101AC000E52A46F003067FF47CAF4FF00B0E0522AB
:101AD0001A70AB696EE7A2F16104192C97BF203A26
:101AE000D2B2D2B24AF0010ADCE728463146FFF70B
:101AF0004FFE6E61E9E60520E7E646F00206CEE716
:101B00004C44000858440008BE420008C043000886
:101B1000C0420008000000000000000000000000BB
:101B2000C26A8A4238B51BD003790D4604461BB9F8
:101B300063783BB1012038BD02F0E2F90028F7D00C
:101B4000012038BD07480379052BF3D1294604F15C
:101B50003002012300F0B4FC0028EBD1E56238BD6F
:101B6000002038BD781000200000000000000000B8
:101B700028B9044B1879053818BF01207047012097
:101B8000704700BF78100020000000000000000037
:101B90002849294B4FF080504FF4004208641A60E6
:101BA0000B6843F001030B600A68224B9207FBD5D8
:101BB0009A6822F003029A609A689A6019468B68C4
:101BC0001C4A13F00C03FAD1116801F0F9011160FD
:101BD0009360536F43F001035367536F15499807A0
:101BE000FBD5164B4B600B68134A43F080730B60B8
:101BF00053685904FCD50F490A680E4B9201FBD576
:101C00000F4A1049996040F2027111609A6842F0DF
:101C100002029A601A469368064903F00C03082BE7
:101C2000F9D14B6C43F480434B644B6E43F48043D7
:101C30004B667047003802400070004010540107A6
:101C4000003C0240001008380000000000000000C6
:101C50000379052B01D001207047836A4B604FF454
:101C600000730B60002070470000000000000000BF
:101C70000079053818BF0120704700BF0000000040
:101C800038B5202282F311880279022A12D0042367
:101C900004460371002585F31188FFF789F8A36CCA
:101CA000022218B958601860227138BD5D601D604D
:101CB000227138BD002080F3118838BD000000007B
:101CC0002DE9F8434FF080452B699B0703D4BDE80D
:101CD000F843FEF775BC00272F61202686F3118894
:101CE000DFF87890696AD9F81C30D9F828E09A684A
:101CF000CEEB0100904209F11C081CD31968DC6886
:101D000072444145C9F82820C1F80480C9F81C1064
:101D1000DF6008BFEF6087F311881869A04786F37A
:101D20001188D9F81C30696AD9F828E09A68CEEB96
:101D300001008242E2D9434508D07244521A012A76
:101D400098BF02224FF080430A445A63002383F372
:101D50001188BDE8F843FEF733BC00BF40110020F6
:101D6000084B09485968826F890D01F03D0110B593
:101D70008C05DC600AB1C06F9047BDE81040FEF7EB
:101D80001FBC00BF00640240B80F0020000000002C
:101D9000084B09485968026F090C01F03D0110B564
:101DA0000C04DC600AB1406F9047BDE81040FEF7BC
:101DB00007BC00BF00640240B80F00200000000014
:101DC000084B09485968826E890901F03D0110B538
:101DD0008C01DC600AB1C06E9047BDE81040FEF790
:101DE000EFBB00BF00640240B80F002000000000FD
:101DF00008B5074B07485968026E01F03D01D960EC
:101E00000AB1406E9047BDE80840FEF7D9BB00BF5D
:101E100000640240B80F0020000000000000000035
:101E2000084B09481968826D890D01F03D0110B514
:101E30008C059C600AB1C06D9047BDE81040FEF76C
:101E4000BFBB00BF00640240B80F002000000000CC
:101E5000084B09481968026D090C01F03D0110B5E5
:101E60000C049C600AB1406D9047BDE81040FEF73D
:101E7000A7BB00BF00640240B80F002000000000B4
:101E8000084B09481968826C890901F03D0110B5B9
:101E90008C019C600AB1C06C9047BDE81040FEF711
:101EA0008FBB00BF00640240B80F0020000000009C
:101EB00008B5074B07481968026C01F03D019960AD
:101EC0000AB1406C9047BDE80840FEF779BB00BFFF
:101ED00000640240B80F0020000000000000000075
:101EE000084B09485968826B890D01F03D0110B516
:101EF0008C05DC600AB1C06B9047BDE81040FEF76E
:101F00005FBB00BF00600240B80F0020000000006F
:101F1000084B09485968026B090C01F03D0110B5E6
:101F20000C04DC600AB1406B9047BDE81040FEF73E
:101F300047BB00BF00600240B80F00200000000057
:101F4000084B09485968826A890901F03D0110B5BA
:101F50008C01DC600AB1C06A9047BDE81040FEF712
:101F60002FBB00BF00600240B80F0020000000003F
:101F700008B5074B07485968026A01F03D01D9606E
:101F80000AB1406A9047BDE80840FEF719BB00BFA0
:101F900000600240B80F00200000000000000000B8
:101FA000084B094819688269890D01F03D0110B597
:101FB0008C059C600AB1C0699047BDE81040FEF7EF
:101FC000FFBA00BF00600240B80F00200000000010
:101FD000084B094819680269090C01F03D0110B568
:101FE0000C049C600AB140699047BDE81040FEF7C0
:101FF000E7BA00BF00600240B80F002000000000F8
:10200000084B094819688268890901F03D0110B53B
:102010008C019C600AB1C0689047BDE81040FEF793
:10202000CFBA00BF00600240B80F002000000000DF
:1020300008B5074B074A196801F03D01996013681C
:102040000BB150689847BDE80840FEF7B9BA00BF29
:1020500000600240B80F00200000000000000000F7
:1020600010B5202383F31188064B07480024DC6356
:102070002146FEF7BDFF84F31188BDE81040FEF74E
:102080009FBA00BF002C0140B410002000000000E7
:102090000C30FEF725BC00BF00000000000000006F
:1020A0000C304FF0FF33FEF71BBC00BF00000000F8
:1020B0003030FEF79DBB00BF0000000000000000B4
:1020C00030304FF0FF33FEF793BB00BF000000003D
:1020D0000C30FEF745BC00BF00000000000000000F
:1020E0000C304FF0FF31FEF73BBC00BF000000009A
:1020F0003030FEF7C5BB00BF00000000000000004C
:1021000030304FF0FF32FEF7BBBB00BF00000000D5
:1021100001F001038A0748BF43F002034A0748BFA2
:1021200043F008030A0748BF43F00403CA0648BF48
:1021300043F010038A0648BF43F020038A05026873
:1021400048BF43F0400313430360704700000000A2
:1021500010B5846C41F49861A260E160616B11F08C
:102160004502FBD0A26311F03F0209D1216A196038
:10217000E1695960A16999606169D960104610BD33
:102180003430FFF7C5FF012010BD00BF0000000084
:1021900010B5846C41F48861A260E160616B11F05C
:1021A0004502FBD0A26311F0050203D161691960F9
:1021B000104610BD3430FFF7ABFF012010BD00BF4B
:1021C0002DE9F0410646406CB56C077AD5F834C06D
:1021D00090E808403D24BC40CEF800401C6824F044
:1021E0001F04884617461C601A6812F00104FBD1D0
:1021F000017A0D4A3D238B40CEF800306146AA6338
:1022000006F13400EC63EC62FFF782FFB8F1010FD6
:1022100007D9304622463B460C21BDE8F041FFF786
:10222000B7BFBDE8F08100BFFF07C000000000009D
:102230002DE9F041202305460E46174683F3118809
:10224000846CE36B33BB626B12F480721DD06B6CD9
:102250001868026812F00102FBD193F808E059688F
:10226000124B3D2000FA0EF00860A363E26282F395
:102270001188012E06D928463B460C21BDE8F041C5
:10228000FFF786BF1046BDE8F08182F31188012078
:10229000BDE8F081064A0346926943F83C2F0320CB
:1022A0001362FEF7EDF9AC6CCDE700BFFF07C0008D
:1022B00040110020000000000000000000000000AD
:1022C0002DE9F0411D46436C066C1B68DFF894C095
:1022D00004466F0246F040064FEA9708806CD4F837
:1022E00030E0DA60C3F804801E601E681EF0100F34
:1022F00046F0010682B01E6040F21A3208BF490261
:1023000001AE012DC0F838C03346C26387620A4669
:10231000204619D91921FFF73BFF60B9019A104BEC
:10232000134043B9A36C9922DA622046294632460B
:10233000FFF77EFF28B1204629463246FFF740FFCF
:10234000012002B0BDE8F0811821FFF721FF00282D
:10235000F1D1019A024B1340002BE3D0EBE700BF11
:1023600008E0FFFDFF07C0000000000000000000C3
:102370002DE9F0410E46876A591E3144B94282B0B8
:10238000044607D9436B43F080034363012002B046
:10239000BDE8F081154607220271AA0724D00BB3CD
:1023A000194F06EB030829464FF400721748FDF752
:1023B0007FFFA26C2046576205F50075FEF7F8FC1A
:1023C00028B101200523237102B0BDE8F081314618
:1023D00020460E4A0123FFF773FF01360028F0D193
:1023E0004645E0D10020EDE7826C07495162019338
:1023F000FEF7DEFC019B0028E3D131462A46204649
:10240000FFF75EFFDEE700BF808D5B000008002065
:102410002DE9F0411D46436C066C1B68DFF8908087
:1024200004466F024FEA970C806CD4F830E0DA6013
:10243000C3F804C01E601E681EF0100F46F00106AF
:1024400082B01E604FF09B0208BF490240F22A3C56
:1024500001AE012DC0F838803346C0F83CC0876219
:10246000C2620A46204616D91221FFF791FE48B9EA
:10247000019A0E4B13402BB9204629463246FFF7EE
:10248000D7FE28B1204629463246FFF799FE0120A3
:1024900002B0BDE8F0811121FFF77AFE0028F1D1EA
:1024A000019A024B1340002BE6D0EBE708E0FFFD5A
:1024B000FF07C00000000000000000000000000056
:1024C0002DE9F0410E46876A591E3144B94282B067
:1024D000044607D9436B43F080034363012002B0F5
:1024E000BDE8F081154606220271AA0724D00BB37D
:1024F000194F06EB0308A26C20465762FEF758FC02
:1025000028B101200523237102B0BDE8F0813146D6
:10251000124A20460123FFF77BFF01360F494FF493
:1025200000720028EDD12846FDF7C2FE464505F5AC
:102530000075E0D10020E5E7826C07495162019304
:10254000FEF736FC019B0028DBD131462A462046A7
:10255000FFF75EFFD6E700BFC02709000008002094
:102560002DE9F043856C224E6E6283B004460E4620
:1025700017469846FEF71CFC002836D1626C236C87
:102580001268A56CD660B908516013601068DFF856
:10259000689040F0010040F22A3C4FF00F0E01AE6F
:1025A00010604146C5F838903346C5F83CC0204617
:1025B000AF620A9AC5F82CE0FFF7EAFD40B1204669
:1025C00032460121FFF7FCFD012003B0BDE8F08396
:1025D000019A084B1340002BF1D1204601213246CD
:1025E000FFF726FE0028EAD1EFE701AEE7E700BFDC
:1025F000C027090008E0FFFDFF07C0000000000041
:10260000F0B5294F467A3D68012404FA06FE1EEA19
:10261000050F44D1254C4EEA050504EBC60C15F018
:10262000FF0F3D6044F83620CCF8043004D0204C35
:10263000236B43F40013236315F47F4F29D10568FE
:102640002B6823F01F032B602B6813F00103FBD1D1
:10265000077A44683D26BE40212726602B606F61C3
:10266000FAB1807A4209920000F1604502F16042BD
:1026700002F5614205F5614500F01F0009010124E2
:102680008440C9B285F80013C2F88041146018462E
:10269000F0BD074C236B43F480032363CFE7204650
:1026A000F0BD1046F0BD00BF38100020B80F00206C
:1026B00000380240000000000000000000000000A0
:1026C00008B5094B094A9B69094C9A614FF480553A
:1026D0002E46668341F28830FEF76AF9258341F27F
:1026E0008830FEF765F9F4E74011002070450008D6
:1026F000000C02400000000000000000000000008C
:102700002DE9804897B0C24B772488209921BB22BD
:102710004FF011084FF0220C4FF0330E442755268E
:1027200066258DF81E408DF820108DF821208DF83B
:1027300018808DF819C08DF81AE08DF81B708DF88F
:102740001C608DF81D508DF81F004FF0FF310022E6
:10275000186919611A61586959615A61186AAD4C52
:1027600060F0805018621A62586A59625A62196C95
:1027700041F080511964216841F480712160196F22
:1027800001F44071B1F5007F03D04FF48031196737
:102790001A67A048A04C4368A04EA14D002123F425
:1027A000007343600A468C462160B358DFF86C9290
:1027B000196045F83C100CF1010CBCF1100F02F14E
:1027C0000C024FF00003F0D1DFF8B0B2954FDFF804
:1027D00040829549954DDFF8A8A2954E954C9648B4
:1027E000964A4FF0FF3ECBF808E0CBF80CE0C7F874
:1027F00008E0C7F80CE0D8F83070DFF888B247F08E
:102800009F07C8F83070D8F8507047F09F07C8F895
:1028100050706FF48A674B608F60894FCF604FF6BE
:10282000DF774F614FF4EE470F624FF42A274F6274
:102830000095844FC1F800B06FF48221CAF80430CB
:10284000CAF80810CAF80C704FF080614FF6FF7795
:10285000CAF81470CAF8201040277B49CAF82470BF
:10286000CAF8001079497360C6F808E0F1604FF6C5
:10287000FF7171616FF0AA4B336240F6FF717362B2
:10288000734F33604FF0AA466360C4F808B0E76046
:102890004FF0450B61612362636226604FF6FF745F
:1028A0004360C0F808E0C0F80CB0446103624362C2
:1028B00003605360C2F808E0D3605461136253624E
:1028C0001360009A634942F8041B634E634F6B61C7
:1028D0001146696009F1480105F10C0A3163604A4B
:1028E0006049C5F80CA005F15404C5F810A0726346
:1028F00006F10C0A0122AC616C6273607361F361D2
:10290000C6F82C90C6F80CA0C6F810A03270A1F83A
:1029100000E0554955482C62DFF86CB1DFF86CA136
:10292000C7F800B005F174042C64C5F84CA009F197
:10293000540409F1840A6967DFF854B1C0F82090A3
:10294000A1F50061C1614462C7F844A000F10C0424
:1029500005F1640AC7F848B0DFF838914449C5F872
:1029600038C005F1300B2A720270AB62436083609D
:1029700043613A717B63FB62BB62FB638162C0F8B7
:102980002C90C4600461C5F81CA0C5F83CA0C5F833
:1029900048A0C5F844A0ED622D65C5F830B0D8F860
:1029A0004000C5F834B01043DFF8ECB0C8F8400080
:1029B000DBF80800DFF8E4A0DFF8E4902D4C2E49A6
:1029C0001043CBF808004FF0804042F2CF0BC0F824
:1029D00028B0C0F82CE04FF0800B83614363C360E4
:1029E0004360426102604FF08050019289F81CB34D
:1029F000C9F88001C9F80000CAF80830DAF80CB04C
:102A00004FF6FF000BEA00000443CAF80C4049E00F
:102A1000003802400070004038100020B044000828
:102A2000B80F00200064024000000240C4100020E3
:102A300000080240000C024000100240001C02404E
:102A4000055115645545515580200800555555517F
:102A500055555500A04500083C1000207810002076
:102A600000540040340E002000440040880F002035
:102A7000160001000003FA05F0ED00E000600240DE
:102A800000040240A004802A80440008C11000080D
:102A9000002C014046000100002004E000ED00E0B1
:102AA00000E100E0C868DFF874B3D04C40F08070FB
:102AB000C860DBF8000064601043CBF800004FF002
:102AC000200204F11C0B8AF81FC00CA88AF82220EF
:102AD000C4F824E0A360A3622460246164614FF021
:102AE000000AC4F81CB0C4F820B04FF0000BCDF8B9
:102AF00030E0CDE910AB63670D930E930F93009315
:102B000000F08EFB0CA8FDF78BFDB948D4F814A09B
:102B10000E99C4F844A000F1100C40234022C0F8E4
:102B200010C0C0F814C0A36304F1300C009BE2662F
:102B3000019A836184F84D30A366636684F84E2061
:102B4000A36424646167CAF810C0C4F814C0C4F850
:102B500018C004F1540CC4F854C0DFF8C4C2C0F863
:102B600000C08360C360DFF8BCE2DFF8BCB2DFF80E
:102B7000BCA284F84C2004F15800A065E0659D4893
:102B80002EF0070E2BF0070BCAF800E0C0F800B0DB
:102B90004FF0020C83F3118862B6A16996488861F0
:102BA000202181F31188D4F814E0C4F8802084F83F
:102BB00094C0C4F8B42084F8962004F5967C04F1FF
:102BC00078028E48DFF868B2C4F8303184F8953066
:102BD000C4F8B030C4F8AC30C4F89030C4F884C045
:102BE000C4F82C01C4F88CE0C4F88840C4F84CB197
:102BF00004F19C0CCEF8102004F1A00E1046C4F88D
:102C00009CC0C4F8A0E0C4F8A4E00093626100F0A6
:102C1000D7FA009B83F31188794AC4F890204020AA
:102C2000009300F08DFB4FF4007000F089FB20232F
:102C300083F3118896F800C07249716040F25640E3
:102C400040F21642BCF1010FB0627262D6F834A0B5
:102C5000009B00F028825246F06A336BD0F8008067
:102C6000D3F800E0486891F808C00AF11003C8F8EA
:102C70000830CEF808304FF400484FF4106E0023AF
:102C8000CAF80080CAF80030CAF804E0D2F804801C
:102C90004FF6C07E08EA0E0EC2F804E0D2F804E057
:102CA000DFF890814EF02A0E4045C2F804E040F370
:102CB000EF81DFF884E170450BDCBCF1020F00F01E
:102CC0005782BCF1030F00F02B8248F6FF730D20F2
:102CD0001062D3610978136802299BB200F0D28197
:102CE000032900F0CC81012900F0C5811360DAF8D6
:102CF00000304FF0020943F00103CAF800304FF0F2
:102D0000000886F8009088F311883F4E4FF0100AB3
:102D1000A6F81AA04FF47A70FDF74AFE4846A6F8C6
:102D200018A0012100F0E4FE0420AF2100F0E0FE35
:102D30000520812100F0DCFE0620042100F0D8FEF1
:102D400048469E2100F0D4FE2020E12100F0D0FE74
:102D50002120E12100F0CCFE1A200A2100F0C8FE5B
:102D60001B200A2100F0C4FE41460A2000F0C0FEEC
:102D70000E20042100F0BCFE4146272000F0B8FEE2
:102D80001C20802100F0B4FE202383F311882B7ACD
:102D9000012B00F062816B6F1C4A934200F0598155
:102DA00002F58062934200F0548140F245429A60FD
:102DB00044F24001012642F22C10002219615E61AA
:102DC0000221D8601A6018685B68297282F3118842
:102DD000202383F311883B790D480E49F862B342F2
:102DE00039640D4D00F01681AB6C27E040110020D6
:102DF00090120020300C002060440008710500088B
:102E000078450008C0450008000C02400010014051
:102E1000A04400082054A30878100020001000E00F
:102E2000C1040008E3140020008001207410002079
:102E300091020008A0860100801A060000250222E7
:102E40001D605D60DD623A715D6285F311883B68EB
:102E5000BA481B689847B948FDF7BAFDB84BB94A5C
:102E600003920CA802930C93FEF762FB071E10DB83
:102E7000B54E56F8273003B11D70039B002B00F0B0
:102E8000858000221A7003A802A946F8273001F0B5
:102E900067F800231A4604A805A9059301F060F815
:102EA00000287CD000230C93A848132100F060FB7D
:102EB000002871D0A648112100F05AFB002868D0E4
:102EC000202383F31188A34B6269A34FC3F82471B5
:102ED00000254021022601201E7798775A61C3F809
:102EE00044B11C6103F59277C3F828515D779D6367
:102EF0005D639D61D96303F12406136103F1280228
:102F00001846DF6099605E629A62DA62636100F07F
:102F100057F985F31188112706AE222533240022A4
:102F20004FF044094FF055084FF0660C4FF0770E04
:102F300088209921BB238DF81EE08DF81F008DF8A5
:102F40001B908DF81C808DF81DC08DF820108DF819
:102F500021308DF818708DF819508DF81A401368CB
:102F60005168DE604FF00A0E4FF48060C3F804E051
:102F70001860107A3D2282400A601A6842F001020D
:102F80001A6041F28830FDF713FDC8E746F8273094
:102F90007FE700F02DFA93E700F02AFA8AE7049B16
:102FA0000C9300F07DF9054600283FF47DAF09AB96
:102FB0000CA8059913951293FEF73AFC064628468D
:102FC000FDF7CEFF002E7FF46DAF119B03B3DA7ACD
:102FD000D2067FF567AF0499DD7E08789A7E0328D4
:102FE00042EA052205D1587D1B7D43EA002342EACF
:102FF00003420E92CB88ADF834300CA80021FEF7C6
:10300000C7FB04283FF44EAF00283FF44DAF49E71B
:103010000499EFE71346686C0921FFF7F1FA6A6C2F
:10302000AB6C15684D4A4E494FF4003003F1800CEB
:103030004FF0070E9026C5F808C0C5F814E082F8D6
:103040003163C2F8840150604A6C42F400624A6401
:10305000F4E640F68B029A60AAE641483F4B026CC8
:103060004021C02642F40032026483F82663C3F88C
:10307000841159608FE623F00A039BB236E643F0D1
:103080000A0333E623F008039BB243F002032DE664
:103090004FF02B0E4000334BC2F820E093FBF0F3CF
:1030A000C3F30B0315E6D8F82010CDF800C041F4A7
:1030B0000011F06A2C4AC8F82010C8F82030062108
:1030C0003346FFF79DFA294A306B06213346FFF756
:1030D00097FAD8F840E0706AB36A7168726B4EF480
:1030E000001E40F0007043F00073C8F840E040F468
:1030F00080304FF0600E4FF0004843F4803389F881
:103100001FE37062C9F88081B362C9F8008089F852
:1031100020E3DDF800C0C9F884C1C9F804C09BE50C
:1031200000EB800303EB83000E4B93FBF0F36FEA9D
:1031300083436FEA93439BB2C9E500BF7810002038
:1031400080450008000A0020380E00208445000851
:1031500090450008400E0020C126000800E100E074
:103160000038024080DE8002C1140008D11000083F
:1031700000EB4000044B93FBF0F36FEA43436FEA2C
:1031800053439BB2A3E500BF80DE80020000000035
:103190000A4A08B513680BB1197809B9092008BDA6
:1031A0009288D9889142F9D15878FEF7E1FC10F065
:1031B000010F14BF0320002008BD00BFB012002083
:1031C000144B816870B49D690446A868002281424E
:1031D00022620BD822771B689A689142FBD95A6801
:1031E0006260236014605C6070BC70472A771A4686
:1031F000126891688842FBD95068686001262A608D
:10320000056055602677294620469C6170BCFDF715
:1032100037B800BF4011002000000000000000008F
:10322000014B5B6883607047001000E00000000005
:10323000F8B5174F57F8044FBC4220D0064600257A
:1032400002E02468BC421AD0E3683343E36016B15D
:1032500022691342F5D06068A368416B027F0B437B
:103260000A2A43630CD00B2AEBD1026A13409A421C
:10327000E7D10562FDF7BCFD2468BC42E4D1F8BD8E
:10328000026A1342DDD00562FDF7B2FDF4E700BF2C
:10329000C41000200000000000000000000000003A
:1032A00010B5202383F311881F48FDF7F1FD00239B
:1032B00083F311881D4B04E04268B2F5007F16D2FB
:1032C000034618680028F7D1194C04F11000FDF7E7
:1032D000A7FD236833B34FF40270984710B34FF43F
:1032E00000730460436000F10804204610BDB2F58D
:1032F000027F09D202681A6004460D4844F8080BA0
:103300001030FDF78DFDF0E70468C0F8084200F5C5
:103310000271A2F502724FF40074C0F80C22196019
:103320004460E9E70024E0E7A012002098120020A2
:1033300090120020000000000000000000000000CB
:10334000F0B501241D4B274600220F25032624E05B
:10335000D3F820E02EEA01011962596807FA02FE4B
:1033600021EA0E01214359605100D3F808E006FA22
:1033700001F1C94301EA0E0EC3F808E0D3F80CE0EE
:1033800001EA0E0EC3F80CE0D3F800E001EA0E01EA
:103390001960400811D06400013202F00701890071
:1033A00010F0010F05FA01F1F3D0072AD0D9D3F8B4
:1033B00024E02EEA01015962CFE7F0BD000402408B
:1033C0000B4608B10420704705480179052901D052
:1033D0000320704711461A460123FEF7C9BF00BFFC
:1033E0007810002000000000000000000000000035
:1033F0002DE9F84FFFF7CCFEC8B9594CA3799A06CE
:1034000058D55B060CD52146A26951F8243B587863
:10341000FFF7D6FF002851D1A37923F04003A37111
:103420002068E1694E4EFEF77BFB02460AB1BDE81B
:10343000F88F336AB179D87A35689A7540F02000F0
:10344000D8723069D6F80CC083F81CC0070CCCF3D6
:10345000072E4FEA1C4B4FEA1C6AC0F3072983F87A
:103460001DE021F020014FEA17284FF0210C4FF00A
:10347000010E9876DA755A7683F81EB083F81FA08D
:103480009A74DA7483F81B901F7583F8158083F89B
:1034900018C0B171284685F804E000F031FD00281D
:1034A000C5D12B78032B0CD06B783BB9FFF770FE9E
:1034B0000028BCD100202060BDE8F88F0120BDE8C5
:1034C000F88F6B79012BEFD105F130010B4605F533
:1034D0000C7203F8010B93424FF00006F9D12B69EF
:1034E000E868EA6985F81832C3F3072E1F0C1B0E33
:1034F000C0F3072A4FEA10494FEA106801324FF033
:10350000550C85F819E285F81A724FF0520E6127B2
:1035100085F81B3285F81C02412372204FF0AA0B5C
:1035200085F8140285F8150285F81DA285F81E920B
:1035300085F81F82EA6285F82EC285F82FB285F8D9
:1035400030E085F831E085F8327085F8177285F83B
:10355000333085F816326878FFF732FF6E71A3E7D3
:10356000B012002000000000000000000000000079
:103570002DE9F04F97B0AB4C039001F01E020023F1
:103580000F460DA803A9236000F0EAFC814610B1A4
:1035900017B0BDE8F08FFFF783FE054600285DD029
:1035A00007AB0DA8039914951393FEF741F907F0A3
:1035B0001F068246DDF84880002851D1B8F1000F7F
:1035C00000F0148117F01C0F00F08B8098F80B307E
:1035D00013F0110F40F0FB80780700F10A810D9F76
:1035E000310740F18C800023212288F8102088F8D0
:1035F0000E3088F80F3088F8113088F80B3088F8D2
:103600001C3088F81D3088F81E3088F81F303B7851
:1036100098F81B9098F81A20032B42EA092900F029
:1036200046810023012288F81A3088F81B3088F878
:10363000143088F815303A71B9F1000F5DD0FB6A8B
:103640000093914503D97B699945C0F0C8814FF03B
:10365000020A2846FDF784FC504699E7112097E7B7
:1036600017F01C0FF5D0BAF1040FF2D1139FDDF85B
:1036700050803B460DF1280B13F8012B0BF8092065
:1036800009F10109B9F10C0FF6D19DF8333000931F
:10369000DB0740F1BA800023FB724FF0010914935D
:1036A00000231BF80320FA5401330B2BF9D1B9F195
:1036B000050F4FD9A8F1020E4B463EF8022F002A03
:1036C00049D0102102F0010000EB4303D80344BFAE
:1036D00083F4883383F0210301394FEA5202F1D198
:1036E000EBE798F80B30D8067DD4B90701D5DA0797
:1036F0006DD43B0740F1AD810D9F46F02006FB6A7B
:10370000E3612846C4F82080FDF72AFC00230D9DC4
:10371000E371A6712A7898F81B0098F81A30032AEA
:1037200043EA002056D098F81E1098F81F3098F8F9
:103730001C2098F81D70EE882061090441EA03639B
:103740001343002043EA07232560A680E360A060BE
:10375000A0611DE74B46072203F00F0005A9013ABF
:1037600001EB020E00F13001392988BF00F1370169
:103770001B098EF80110EFD116A911447E2001F823
:10378000440C03E0F95C202902D001339342F9D1C3
:103790003B4416A91144072A94BF11F8441C202168
:1037A00003F8011BA3EB070198BF01320729F0D9E9
:1037B0000DA80021FDF7ECFFF0B90DA800F0F8F915
:1037C000D0B909F10109B9F1640F7FF469AF4FF085
:1037D000070A3EE798F8152098F8143043EA0223C8
:1037E00040EA03409FE74FF0040A32E74FF0060A31
:1037F0002FE74FF0080A2CE7042882467FF429AF10
:103800009DF80030FB72CDF85080009B9F0765D477
:1038100001270DA80021FDF7BBFF8246002850D1EB
:10382000804607E0B01200209846FDF7A9FE034647
:10383000002845D111990D98FEF772F90121034630
:10384000884400283CD1129A1278E52A0DA801D0AC
:10385000002AE9D14745E8D17B1E00934AD10D9853
:103860001199FEF75DF9824600287FF4F2AE129BB3
:1038700003F1200203F801AB9342FBD1139A129B90
:1038800002F10B01013B12F8010B03F8010F8A4210
:10389000F9D1139B1299DB7A0D9F03F018030122D3
:1038A0000B733A71DDF8488046F0080698E698F800
:1038B000152098F8143043EA022349EA0349B0E698
:1038C0009A46BAF1040F08BF4FF0070ADDF84880A6
:1038D000BAF1000F7FF4BDAE0D9FE5E7002300E0D5
:1038E000013338F81320002AFAD119330D27B3FB1E
:1038F000F7F78EE7BDF83A10009B0DA8C91AFDF73F
:1039000047FF82460028E1D11399034601F10B00DD
:1039100011F8017BDA0142EA530357FA83F381423B
:10392000DBB2F5D1DFF834B1029301960D9811990D
:10393000FEF7F6F80246002A4ED19DF80090129F3D
:103940009DF80830DDF850807B730F2109F1FF30BE
:103950000D26F972134606FB00F63A73BA76FA762C
:1039600011464FF6FF7C4FF0FF0A0FE038F8163093
:10397000BB543A444FEA132E701C82F801E083B91D
:1039800006464FF6FF7301310D290CD063451BF835
:103990000120EBD107EB020E07F802A030468EF8AB
:1039A00001A00646EFE74FF6FF72934202D038F8C7
:1039B00010300BB949F0400987F800900D9B0122A7
:1039C0001A710DA80021FDF7DBFD28B9009B013B12
:1039D0000093ABD1019E42E7019E824676E7CA463C
:1039E00021E001283FF433AEB0F1FF3F2ED0BAF111
:1039F000010F7FF62CAE7B699A45BFF428AE514685
:103A00003846002200F09CF928BB3B695A1C03F1A0
:103A1000010304D07A793B6142F001037B717B6939
:103A20005B45DA4606D93846514600F001FA83462E
:103A30000028D6D10D98009909F1FF33C360FEF735
:103A40006FF8824600283FF457AE02E64FF0010AB5
:103A5000FFE50D9F53E68246FBE500BFD045000819
:103A600000224FF0FF3370B50271C3620446FEF7C7
:103A700057F808B1032070BD94F82F1294F82E3235
:103A80004AF6552243EA0123934201D0022070BD39
:103A900094F8681094F8693094F8662094F8676098
:103AA0000F4D090441EA0363134343EA062323F05D
:103AB0007F43AB42EBD094F8841094F8853094F8AF
:103AC000822094F88300090441EA0363134343EA24
:103AD000002323F07F43581B18BF012070BD00BF97
:103AE00046415400000000000000000000000000FB
:103AF000F8B52B4F20233870797083F31188294D46
:103B00000320942200212A842870A9606A6B81F323
:103B100011882C6BE86A26680068AC6AD5F824E046
:103B200034604FF0020C4FF08044F760C6F804C0D8
:103B3000C0F800E0C1604160666A184601E081F3A8
:103B4000118880F3118893699F0702D413689B053D
:103B50000AD5636A9B1BB3F5FA7FF0D305232B705C
:103B6000002383F31188F8BD53680F490D4C8E690B
:103B700043F400735360136804F11C0143F4807331
:103B8000136003203162EE612821FCF791FD0130C2
:103B9000E4D002232370002383F31188F8BD00BF13
:103BA000D81400203C10002040110020000000002C
:103BB0002DE9F04F4FF6FF76FF2783B00446DFF87C
:103BC0007491DFF874B106843D4609E00F2941D0B5
:103BD0002684FF2520460021FDF7D2FC002836D19F
:103BE00020682169FDF79CFF88BB636993F800E0BA
:103BF000BEF1000F43D0BEF1E50FDA7AE8D002F053
:103C00003F011207E2D40F2924D08DB91D4603F1DC
:103C10000A0CF046024601E015F8018FD10141EA95
:103C2000520258FA82F26545D2B2F5D197420ED0CF
:103C3000A269D17AC907CBD402F10B0501E013F8D0
:103C400001EF12F8011B8E45C2D1AA42F7D103B091
:103C5000BDE8F08FE0690028BCD01EF0400F0AD00C
:103C6000E2885F7B22840EF0BF0593F80DA0BA4571
:103C700009D0FF25AEE7AE45F7D0FF25AAE704201F
:103C800003B0BDE8F08F1A78009222F04002013AAA
:103C900002EB420102EB8102DFF8A08001950121D5
:103CA000944603E0B54241D1C8452ED018F8012B07
:103CB0009D189A5C6D7842EA05250029F2D0612DA5
:103CC0001FD01B4F002101E095421BD037F8022F77
:103CD0000131002AF8D1BCF1FE0F27D830F81CE0E2
:103CE000BEF1610F0CF1010C1BD0114F002101E05E
:103CF000964517D037F8022F0131002AF8D17146C6
:103D000012E000213BF81150E5E7009B019D5F06A2
:103D100003D511B130F81C3043B9013DEDB257461F
:103D200058E700213BF811108D42BDD05746A0E75F
:103D3000C0470008DD450008E0450008D045000800
:103D4000F8B50378022B04460D46164638D0032BEF
:103D500047D0012B61D1016A05EB550701EB5721D3
:103D6000FDF7DEFE002859D1C7F3080315F0010561
:103D70002344F2B206D093F8301001F00F0141EA6B
:103D80000212D2B2216A83F830200137012301EBFD
:103D9000572123712046FDF7C3FE00283ED1C7F30B
:103DA0000807274415B1C6F3071606E097F8302038
:103DB000C6F3032622F00F02164387F830602DE089
:103DC000016A01EB1521FDF7ABFE38BB6D0005F470
:103DD000FF756219C6F3072382F8306082F831302C
:103DE0001CE0016A01EBD511FDF79AFEB0B9AD00F8
:103DF00005F4FE7505F1300323442544DA781206F4
:103E000002F070421643C6F30727310C320E85F8D4
:103E100030605F709970DA7000E002200123237136
:103E2000F8BD00BF0000000000000000000000001E
:103E3000F8B50378022B07460C462CD0032B0ED086
:103E4000012B01D00120F8BD016A04EB540501EB00
:103E50005521FDF765FE88B34FF0FF30F8BD016ACC
:103E600001EBD411FDF75CFE0028F5D1A30003F4AB
:103E7000FE7404F130033B443C44DA789978587876
:103E800094F83030120642EA014242EA0020184318
:103E900020F07040F8BD016A01EB1421FDF740FEEF
:103EA0000028D9D1610001F4FF72BB181A4693F8BB
:103EB000303092F8310043EA0020F8BDC5F3080322
:103EC000396A6E1C3B4401EB5621384693F830505A
:103ED000FDF726FE0028BFD1C6F30806BB1993F8EC
:103EE0003000E30745EA00204CBF0009C0F30B0097
:103EF000F8BD00BF0000000000000000000000004E
:103F00002DE9F041C46A00F13007054622464078A9
:103F10003946FFF755FA8046B0B92A6AAB6928716D
:103F2000A21A9A420DD2EE78012E01D809E0AB69AF
:103F300068781C44013E22463946FFF741FA012EBB
:103F4000F5D14046BDE8F0814FF001084046BDE89C
:103F5000F08100BF00000000000000000000000031
:103F6000F0B50746002385B008463B601546FDF7CF
:103F7000DFFA041E2ADBBA4B53F8246046B33E60D6
:103F8000337863B17078FDF7F3FDC10707D4002DD6
:103F900044D010F0040F0CBF00200A2014E0E4B25B
:103FA00000237470337074B9AE4B1B79052B0AD1A2
:103FB00030462146FFF754FD01280BD003282BD0B3
:103FC000A0B30D2000E0032005B0F0BD0B20FBE7FF
:103FD0000C20F9E7314691F8F2316BB191F8F80114
:103FE00091F8F93191F8F62191F8F751000440EA7F
:103FF0000363134343EA05234DF824300134042CB2
:1040000001F11001E7D100255DF8254001353CB9EB
:104010000220042DF8D1D1E70120D5E72846D3E7C7
:1040200030462146FFF71CFD0028F2D196F83C20CF
:1040300096F83B3043EA0223B3F5007FC1D196F8EE
:10404000471096F8463053EA012300F0888019465D
:1040500096F840C0B1610CF1FF33012B86F803C024
:10406000AFD896F83D30B370002BAAD05A1E1A4232
:10407000A7D196F8412096F8425042EA05252A0732
:1040800035819ED196F8440096F8432052EA0022EA
:104090000DD196F8527096F8532096F8500096F885
:1040A00051E03F0447EA0262024342EA0E2296F8D8
:1040B0003FE096F83E0050EA0E2E82D00CFB01F055
:1040C0000EEB15170744BA42FFF47BAFD21BB2FBCD
:1040D000F3F3002B3FF475AF40F6F572934240F2D4
:1040E000C7804FF6F572934240F29E80023304EB94
:1040F0000E02274473613262B762F461002D7FF4CF
:1041000060AF96F85E0096F85FE096F85C2096F84F
:104110005D70000440EA0E609B00024303F2FF1052
:10412000B1EB502F42EA07237362FFF44AAF96F8CF
:10413000611096F8603043EA01234FF0FF3280218E
:10414000012B3261F260717118D00323464A33703B
:10415000138801339BB21380F380002034E796F874
:10416000563096F8570096F8542096F855101B04D0
:1041700043EA0063134343EA012169E7611C3046C7
:10418000FDF7CEFC0028E0D196F82F2296F82E32CB
:10419000757143EA02234AF655229342D5D196F827
:1041A000321096F8333096F8302096F831402F4888
:1041B000090441EA0363134343EA04238342C4D15D
:1041C00096F8161296F8173296F8142296F81542B9
:1041D000090400F1FF5041EA036300F50050134366
:1041E000203043EA04238342AFD196F81A4296F86E
:1041F0001E0296F81BE296F81F3296F81C2296F8DB
:10420000181296F8197296F81D522404000444EA14
:104210000E6440EA03631343214341EA072243EA61
:1042200005233261F36090E7023304EB0E0227446A
:1042300073613262B762F461002D3FF4C2AE5B007D
:1042400003F2FF130244B1EB532F7262FFF4B9AED5
:104250004FF0FF3380223361F3607271022375E700
:10426000380E002078100020D414002052526141F2
:10427000023304EB0E02274473613262B762F461C9
:10428000002D3FF49EAE03F0010404F2FF1403EB93
:10429000430304EB53030244B1EB532F7262FFF468
:1042A00090AE4FF0FF3380223361F36072710123CF
:1042B0004CE700BF0000000000000000000000000C
:1042C000AC2000001A2092011E2026202020212050
:1042D000C602302060013920520100007D0100003B
:1042E0000000182019201C201D202220132014203B
:1042F000DC02222161013A20530100007E01780195
:10430000A000A100A200A300A400A500A600A70091
:10431000A800A900AA00AB00AC00AD00AE00AF0041
:10432000B000B100B200B300B400B500B600B700F1
:10433000B800B900BA00BB00BC00BD00BE00BF00A1
:10434000C000C100C200C300C400C500C600C70051
:10435000C800C900CA00CB00CC00CD00CE00CF0001
:10436000D000D100D200D300D400D500D600D700B1
:10437000D800D900DA00DB00DC00DD00DE00DF0061
:10438000E000E100E200E300E400E500E600E70011
:10439000E800E900EA00EB00EC00ED00EE00EF00C1
:1043A000F000F100F200F300F400F500F600F70071
:1043B000F800F900FA00FB00FC00FD00FE00FF0021
:1043C000808182838485868788898A8B8C8D8E8F75
:1043D00090919293949596979899AD9B8C9DAE9F52
:1043E000A021A2A3A4A5A6A7A8A9AAABACADAEAFD5
:1043F000B0B1B2B3B4B5B6B7B8B9BABBBCBDBEBF45
:10440000C0C1C2C3C4C5C6C7C8C9CACBCCCDCECF34
:10441000D0D1D2D3D4D5D6D7D8D9DADBDCDDDEDF24
:10442000C0C1C2C3C4C5C6C7C8C9CACBCCCDCECF14
:10443000D0D1D2D3D4D5D6F7D8D9DADBDCDDDE9F24
:10444000444D41206661696C75726500222A3A3CD0
:104450003E3F7C7F000000002B2C3B3D5B5D00005D
:104460006D61696E00160118040444080C101418DC
:10447000001C1D1E000000000000000000000000E5
:10448000B1100008A1100008D1090008811C000823
:10449000C124000871230008711C0008511C000889
:1044A000340C0020000000000000000000000000AC
:1044B000106002400860024000000B0028600240CB
:1044C0000860024006010C004060024008600240A3
:1044D00010020D00586002400860024016030E00F2
:1044E000706002400C60024000040F0088600240CF
:1044F0000C60024006051000A06002400C60024003
:1045000010061100B86002400C60024016072F0030
:104510001064024008640240000838002864024029
:104520000864024006093900406402400864024001
:10453000100A3A005864024008640240160B3B001F
:10454000706402400C640240000C3C00886402402D
:104550000C640240060D4400A06402400C6402405A
:10456000100E4500B86402400C640240160F46006D
:10457000626C696E6B65720069646C6500000000B6
:10458000303A0000303A66696C652E747874000029
:10459000303A66696C6573652E74787400000000AB
:1045A000C1200008A120000801210008E120000826
:1045B000F1200008D1200008B12000089120000857
:1045C00001000000A08601000300000000000000C0
:1045D00001030507090E10121416181C1E00000016
:1045E00041004200430044004500460047004800A7
:1045F00049004A004B004C004D004E004F00500057
:104600005100520053005400550056005700580006
:1046100059005A002100E0FFE1FFE5FFE2FFE3FF60
:10462000C000C100C200C300C400C500C600C7006E
:10463000C800C900CA00CB00CC00CD00CE00CF001E
:10464000D000D100D200D300D400D500D600D800CD
:10465000D900DA00DB00DC00DD00DE0078010001BB
:1046600002010401060108010A010C010E011001FA
:1046700012011401160118011A011C011E0120016A
:1046800022012401260128012A012C012E013001DA
:1046900032013401360139013B013D013F01410145
:1046A0004301450147014A014C014E0150015201AD
:1046B0005401560158015A015C015E01600162011A
:1046C0006401660168016A016C016E01700172018A
:1046D0007401760179017B017D01910191039203BF
:1046E00093039403950396039703980399039A03FE
:1046F0009B039C039D039E039F03A003A103A303AD
:10470000A403A503A603A703A803A903AA031004EF
:1047100011041204130414041504160417041804D5
:1047200019041A041B041C041D041E041F04200485
:104730002104220423042404250426042704280435
:1047400029042A042B042C042D042E042F04010414
:10475000020403040404050406040704080409040D
:104760000A040B040C040E040F0460216121622171
:1047700063216421652166216721682169216A21FD
:104780006B216C216D216E216F2121FF22FF23FF00
:1047900024FF25FF26FF27FF28FF29FF2AFF2BFFE5
:1047A0002CFF2DFF2EFF2FFF30FF31FF32FF33FF95
:1047B00034FF35FF36FF37FF38FF39FF3AFF00007F
:1047C00061006200630064006500660067006800C5
:1047D00069006A006B006C006D006E006F00700075
:1047E0007100720073007400750076007700780025
:1047F00079007A00A100A200A300A500AC00AF00E0
:10480000E000E100E200E300E400E500E600E7008C
:10481000E800E900EA00EB00EC00ED00EE00EF003C
:10482000F000F100F200F300F400F500F600F800EB
:10483000F900FA00FB00FC00FD00FE00FF00010192
:1048400003010501070109010B010D010F01110110
:1048500013011501170119011B011D011F01210180
:1048600023012501270129012B012D012F013101F0
:104870003301350137013A013C013E01400142015B
:104880004401460148014B014D014F0151015301C3
:104890005501570159015B015D015F016101630130
:1048A0006501670169016B016D016F0171017301A0
:1048B000750177017A017C017E019201B103B20397
:1048C000B303B403B503B603B703B803B903BA031C
:1048D000BB03BC03BD03BE03BF03C003C103C303CB
:1048E000C403C503C603C703C803C903CA0330040E
:1048F00031043204330434043504360437043804F4
:1049000039043A043B043C043D043E043F044004A3
:104910004104420443044404450446044704480453
:1049200049044A044B044C044D044E044F04510402
:1049300052045304540455045604570458045904AB
:104940005A045B045C045E045F04702171217221CF
:1049500073217421752176217721782179217A219B
:104960007B217C217D217E217F2141FF42FF43FF6E
:1049700044FF45FF46FF47FF48FF49FF4AFF4BFF03
:104980004CFF4DFF4EFF4FFF50FF51FF52FF53FFB3
:1049900054FF55FF56FF57FF58FF59FF5AFF0000BD
:04000005080001C12D
:00000001FF
